{
  "contractName": "Auction",
  "abi": [
    {
      "inputs": [
        {
          "internalType": "uint256",
          "name": "_start_time",
          "type": "uint256"
        },
        {
          "internalType": "uint256",
          "name": "_end_time",
          "type": "uint256"
        },
        {
          "internalType": "uint256",
          "name": "_reserve_price",
          "type": "uint256"
        }
      ],
      "stateMutability": "nonpayable",
      "type": "constructor"
    },
    {
      "inputs": [
        {
          "internalType": "uint256",
          "name": "amount",
          "type": "uint256"
        }
      ],
      "name": "bid",
      "outputs": [],
      "stateMutability": "payable",
      "type": "function"
    },
    {
      "inputs": [],
      "name": "auctionEnd",
      "outputs": [],
      "stateMutability": "nonpayable",
      "type": "function"
    }
  ],
  "bytecode": "0x608060405234801561000f575f80fd5b506040516106cd3803806106cd83398181016040528101906100319190610123565b335f806101000a81548173ffffffffffffffffffffffffffffffffffffffff021916908373ffffffffffffffffffffffffffffffffffffffff1602179055505f8054906101000a900473ffffffffffffffffffffffffffffffffffffffff1660065f6101000a81548173ffffffffffffffffffffffffffffffffffffffff021916908373ffffffffffffffffffffffffffffffffffffffff160217905550826001819055508160028190555080600381905550505050610173565b5f80fd5b5f819050919050565b610102816100f0565b811461010c575f80fd5b50565b5f8151905061011d816100f9565b92915050565b5f805f6060848603121561013a576101396100ec565b5b5f6101478682870161010f565b93505060206101588682870161010f565b92505060406101698682870161010f565b9150509250925092565b61054d806101805f395ff3fe608060405260043610610028575f3560e01c80632a24f46c1461002c578063454a2ab314610042575b5f80fd5b348015610037575f80fd5b5061004061005e565b005b61005c6004803603810190610057919061033c565b610118565b005b6002544210156100a3576040517f08c379a000000000000000000000000000000000000000000000000000000000815260040161009a906103c1565b60405180910390fd5b600354600454106101165760065f9054906101000a900473ffffffffffffffffffffffffffffffffffffffff1673ffffffffffffffffffffffffffffffffffffffff166108fc60045490811502906040515f60405180830381858888f19350505050158015610114573d5f803e3d5ffd5b505b565b5f8054906101000a900473ffffffffffffffffffffffffffffffffffffffff1673ffffffffffffffffffffffffffffffffffffffff163373ffffffffffffffffffffffffffffffffffffffff16036101a5576040517f08c379a000000000000000000000000000000000000000000000000000000000815260040161019c90610429565b60405180910390fd5b60015442101580156101b957506002544211155b6101f8576040517f08c379a00000000000000000000000000000000000000000000000000000000081526004016101ef90610491565b60405180910390fd5b600454811161023c576040517f08c379a0000000000000000000000000000000000000000000000000000000008152600401610233906104f9565b60405180910390fd5b8060055f3373ffffffffffffffffffffffffffffffffffffffff1673ffffffffffffffffffffffffffffffffffffffff1681526020019081526020015f20819055503360065f6101000a81548173ffffffffffffffffffffffffffffffffffffffff021916908373ffffffffffffffffffffffffffffffffffffffff16021790555060055f3373ffffffffffffffffffffffffffffffffffffffff1673ffffffffffffffffffffffffffffffffffffffff1681526020019081526020015f205460048190555050565b5f80fd5b5f819050919050565b61031b81610309565b8114610325575f80fd5b50565b5f8135905061033681610312565b92915050565b5f6020828403121561035157610350610305565b5b5f61035e84828501610328565b91505092915050565b5f82825260208201905092915050565b7f6f6e20612064657061737365206c652074656d7073206c696d697465000000005f82015250565b5f6103ab601c83610367565b91506103b682610377565b602082019050919050565b5f6020820190508181035f8301526103d88161039f565b9050919050565b7f6c652070617965757220657374206c652070726f7072696574616972650000005f82015250565b5f610413601d83610367565b915061041e826103df565b602082019050919050565b5f6020820190508181035f83015261044081610407565b9050919050565b7f686f72732064656c6169000000000000000000000000000000000000000000005f82015250565b5f61047b600a83610367565b915061048682610447565b602082019050919050565b5f6020820190508181035f8301526104a88161046f565b9050919050565b7f6c65206d6f6e74616e74206573742074726f7020666169626c650000000000005f82015250565b5f6104e3601a83610367565b91506104ee826104af565b602082019050919050565b5f6020820190508181035f830152610510816104d7565b905091905056fea26469706673582212201dc1f0516756024578ba102f19742ad8b4a4b1816cfc3209fcc71f990f454b8464736f6c63430008150033",
  "immutableReferences": {},
  "source": "// SPDX-License-Identifier: GPL-3.0-or-later\npragma solidity >=0.4.22 <0.9.0;\n\ncontract Auction {\n/**owner: L'adresse du propritaire du smart contract.\nstart_time: La date et l'heure de dbut de l'enchre.\nend_time: La date et l'heure de fin de l'enchre.\nreserve_price: Le prix minimum auquel l'enchre doit tre vendue.\ncurrent_price: Le prix actuel de l'enchre.\nbids:  dictionnaire qui mappe les adresses des participants aux enchres au montant de leurs enchres. \n*/\n    address payable owner;\n    uint256 start_time;\n    uint256 end_time;\n    uint256 reserve_price;\n    uint256 current_price;\n    mapping(address => uint256) bids;\n    address payable winner;\n\n    constructor(uint256 _start_time, uint256 _end_time, uint256 _reserve_price) {\n        owner = payable(msg.sender);\n        winner = owner;\n        start_time = _start_time;\n        end_time = _end_time;\n        reserve_price = _reserve_price;\n    }\n/**\nUne fonction qui permet aux participants d'enchrir sur l'actif.\n */\n    \n    function bid(uint256 amount) public payable {\n        require(msg.sender != owner, \"le payeur est le proprietaire\");\n        require(block.timestamp >= start_time && block.timestamp <= end_time, \"hors delai\");\n        require(amount > current_price, \"le montant est trop faible\");\n\n        bids[msg.sender] = amount;\n        winner = payable(msg.sender);\n        current_price = bids[msg.sender];\n    }\n    \n/**fonction qui est appele  la fin de l'enchre et qui paie le prix gagnant au participant gagnant\n */\n    function auctionEnd() public {\n        require(block.timestamp >= end_time, \"on a depasse le temps limite\");\n\n        if (current_price >= reserve_price) {\n            winner.transfer(current_price);\n        }\n    }\n}",
  "sourcePath": "C:\\Users\\debuf\\Documents\\developpement\\eth_auction_test\\contracts\\auctions.sol",
  "compiler": {
    "name": "solc",
    "version": "0.8.21+commit.d9974bed.Emscripten.clang"
  },
  "schemaVersion": "3.4.15",
  "updatedAt": "2023-09-12T15:26:37.714Z",
  "devdoc": {
    "kind": "dev",
    "methods": {},
    "version": 1
  },
  "userdoc": {
    "kind": "user",
    "methods": {
      "auctionEnd()": {
        "notice": "fonction qui est appele  la fin de l'enchre et qui paie le prix gagnant au participant gagnant"
      },
      "bid(uint256)": {
        "notice": "Une fonction qui permet aux participants d'enchrir sur l'actif."
      }
    },
    "version": 1
  }
}